:020000040800F2
:1000000000500020514A00081D49000825490008F9
:100010002D490008354900083D490008000000004E
:10002000000000000000000000000000454900083A
:1000300051490008000000005D49000869490008B6
:10004000994A0008994A0008994A0008994A000804
:10005000994A0008994A0008994A00081D59000861
:10006000994A0008994A0008994A0008994A0008E4
:10007000994A0008994A0008994A0008994A0008D4
:10008000994A0008994A0008994A0008994A0008C4
:10009000994A0008994A0008994A0008994A0008B4
:1000A000994A0008994A0008994A0008994A0008A4
:1000B000994A0008994A0008994A0008994A000894
:1000C000994A0008994A0008994A0008994A000884
:1000D000994A0008994A0008994A0008994A000874
:1000E000994A0008994A0008994A0008000000004F
:1000F0000000000000000000000000000000000000
:0C01000000000000000000005FF808F1A3
:10010C0010B5054C237833B9044B13B10448AFF345
:10011C0000800123237010BD60000020000000004F
:10012C004476000808B5034B1BB103490348AFF3F1
:10013C00008008BD00000000640000204476000828
:10014C0010F8012B11F8013B012A28BF9A42F7D075
:10015C00D01A7047034613F8012B002AFBD1181A4A
:10016C000138704780B400AF00BFBD4680BC7047FB
:10017C0080B586B000AF78600023FB7500233B612F
:10018C000023BB600023FB607B68002B01D10123A3
:10019C00BEE07B689B68002B7B689B6A002B09D1B7
:1001AC007B680022DA627B68002283F8242078685E
:1001BC0004F0A0F9786800F0ABF90346FB757B6896
:1001CC009B6A03F01003002B40F09980FB7D002B01
:1001DC0040F095807B689B6A23F4885323F00203DC
:1001EC0043F002027B689A627B685A687B68DB6921
:1001FC001A437B681B7B5B001343BA681343BB60D9
:10020C007B689B68B3F5807F03D07B689B68012B70
:10021C0002D14FF4807300E000233A6913433B6131
:10022C007B681B7D012B19D17B681B7B002B09D1B3
:10023C007B689B69013B5A033B69134343F400639E
:10024C003B610BE07B689B6A43F020027B689A62FF
:10025C007B68DB6A43F001027B68DA627B681B68AF
:10026C005B6823F469417B681B683A690A435A60EE
:10027C007B681B689A68284B13407A681268B968C7
:10028C000B4393607B689B68B3F5807F03D07B68DE
:10029C009B68012B04D17B681B69013B1B05FB6030
:1002AC007B681B68DB6A23F470017B681B68FA6847
:1002BC000A43DA627B681B689A68184B1340BA6869
:1002CC009A420BD17B680022DA627B689B6A23F02E
:1002DC00030343F001027B689A6218E07B689B6A17
:1002EC0023F0120343F010027B689A627B68DB6A8E
:1002FC0043F001027B68DA620123FB7507E07B683F
:10030C009B6A43F010027B689A620123FB75FB7DAC
:10031C0018461837BD4680BDFDF7E1FFFE0E1FFFE6
:10032C0080B485B000AF786039600023FB73002384
:10033C00BB607B6893F82430012B01D10223DCE0F5
:10034C007B68012283F824203B685B68062B1CD851
:10035C007B681B68596B3B685A6813469B001344B7
:10036C00053B1F2202FA03F3DB4319403B68186874
:10037C003B685A6813469B001344053B00FA03F292
:10038C007B681B680A435A633CE03B685B680C2B38
:10039C001CD87B681B68196B3B685A6813469B001A
:1003AC001344233B1F2202FA03F3DB4319403B683F
:1003BC0018683B685A6813469B001344233B00FAA9
:1003CC0003F27B681B680A431A631BE07B681B689B
:1003DC00D96A3B685A6813469B001344413B1F2261
:1003EC0002FA03F3DB4319403B6818683B685A6810
:1003FC0013469B001344413B00FA03F27B681B68D5
:10040C000A43DA623B681B68092B1CD97B681B68A2
:10041C00D9683B681A6813465B0013441E3B0722DD
:10042C0002FA03F3DB4319403B6898683B681A688F
:10043C0013465B0013441E3B00FA03F27B681B68F7
:10044C000A43DA6019E07B681B6819693B681A6813
:10045C0013465B001344072202FA03F3DB431940F3
:10046C003B6898683B681A6813465B00134400FAB3
:10047C0003F27B681B680A431A613B681B68102BEC
:10048C0003D03B681B68112B32D17B681B681D4A5B
:10049C00934225D17B681B689B6803F40003002BF7
:1004AC0026D17B681B689A687B681B6842F4000243
:1004BC009A603B681B68102B1AD1134B1B68134AAC
:1004CC00A2FB03239A0C13469B0013445B00BB60F6
:1004DC0002E0BB68013BBB60BB68002BF9D107E0B5
:1004EC007B689B6A43F020027B689A620123FB7352
:1004FC007B68002283F82420FB7B18461437BD460A
:10050C0080BC7047002401400000002083DE1B43A8
:10051C0080B584B000AF78600023FB607B681B68FB
:10052C009B6803F00103012B2ED17B681B689A6832
:10053C007B681B6822F001029A6002F01BFBF860DA
:10054C001BE002F017FB0246FB68D31A022B14D9EE
:10055C007B681B689B6803F00103012B0DD17B6842
:10056C009B6A43F010027B689A627B68DB6A43F0FB
:10057C0001027B68DA62012307E07B681B689B68D9
:10058C0003F00103012BDCD0002318461037BD46C5
:10059C0080BD000080B584B000AF78607B68002B14
:1005AC0001D101232BE17B6893F83D30DBB2002BAA
:1005BC0006D17B68002283F83C20786804F004F8AC
:1005CC007B68242283F83D207B681B681A687B6853
:1005DC001B6822F001021A607B681B681A687B6832
:1005EC001B6842F400421A607B681B681A687B68BF
:1005FC001B6822F400421A6002F0B4FEF8607B68BB
:10060C005B68814A934207D8FB68804A934294BF47
:10061C0001230023DBB206E0FB687D4A934294BFC2
:10062C0001230023DBB2002B01D00123E7E0FB68A0
:10063C00784AA2FB03239B0CBB607B681B685B683E
:10064C0023F03F017B681B68BA680A435A607B68D9
:10065C001B681B6A23F03F017B685B686A4A934204
:10066C0002D8BB68013309E0BB684FF4967202FBF9
:10067C0003F3694AA2FB03239B0901337A681268CE
:10068C000B4313627B681B68DB6923F44F4222F037
:10069C00FF027B685B685C498B4219D8FB68591E6A
:1006AC007B685B685B00B1FBF3F3591C40F6FC7391
:1006BC000B40002B0AD0FB68591E7B685B685B0003
:1006CC00B1FBF3F30133C3F30B0351E004234FE00D
:1006DC007B689B68002B11D1FB68581E7B6859689E
:1006EC000B465B000B44B0FBF3F30133C3F30B037A
:1006FC00002B0CBF01230023DBB212E0FB68581E59
:10070C007B6859680B469B000B4499000B44B0FB6B
:10071C00F3F30133C3F30B03002B0CBF01230023B2
:10072C00DBB2002B01D0012322E07B689B68002BFD
:10073C000ED1FB68581E7B6859680B465B000B4456
:10074C00B0FBF3F30133C3F30B0343F400430FE0AB
:10075C00FB68581E7B6859680B469B000B4499003C
:10076C000B44B0FBF3F30133C3F30B0343F44043EB
:10077C00796809681343CB617B681B681B6823F09D
:10078C00C0017B68DA697B681B6A1A437B681B684B
:10079C000A431A607B681B689B6823F4034323F0AD
:1007AC00FF037A6811697A68D26811437A68126813
:1007BC000B4393607B681B68DB6823F0FF017B684D
:1007CC005A697B689B691A437B681B680A43DA6029
:1007DC007B681B681A687B681B6842F001021A6010
:1007EC007B6800221A647B68202283F83D207B689A
:1007FC0000221A637B68002283F83E2000231846EF
:10080C001037BD4680BD00BFA08601007F841E004E
:10081C00FF083D0083DE1B43D34D621080B58CB0C6
:10082C0002AFF860084611461A4603467B810B4618
:10083C003B811346FB8000233B6202F09BF97862FC
:10084C00FB6893F83D30DBB2202B40F050827B6A82
:10085C000093192301228249F86800F03BFB034600
:10086C00002B01D0022343E2FB6893F83C30012BB0
:10087C0001D102233CE2FB68012283F83C20FB6897
:10088C001B681B6803F00103012B07D0FB681B6876
:10089C001A68FB681B6842F001021A60FB681B684F
:1008AC001A68FB681B6822F400621A60FB6822223B
:1008BC0083F83D20FB68402283F83E20FB68002231
:1008CC001A64FB683A6B5A62FB68BA8E5A85FB68ED
:1008DC005B8D9AB2FB681A85FB68624ADA62F8880B
:1008EC003A8979897B6A0193BB6B00930346F8685C
:1008FC0000F008FA0346002B01D00123F8E1FB6855
:10090C001B8D002B13D10023FB61FB681B685B69FB
:10091C00FB61FB681B689B69FB61FB69FB681B68DF
:10092C001A68FB681B6842F400721A60CCE1FB6821
:10093C001B8D012B1ED1FB681B681A68FB681B689A
:10094C0022F480621A6072B600BF0023BB61FB68A0
:10095C001B685B69BB61FB681B689B69BB61BB69FE
:10096C00FB681B681A68FB681B6842F400721A600B
:10097C0062B635E0FB681B8D022B1ED1FB681B6831
:10098C001A68FB681B6842F400621A6072B600BFFA
:10099C0000237B61FB681B685B697B61FB681B68E0
:1009AC009B697B617B69FB681B681A68FB681B6829
:1009BC0022F480621A6062B612E0FB681B681A6847
:1009CC00FB681B6842F480621A6000233B61FB6881
:1009DC001B685B693B61FB681B689B693B613B69FE
:1009EC0072E1FB681B8D032B00F21F81FB681B8DD2
:1009FC00012B23D17A6AB96BF86800F0CDFB034662
:100A0C00002B01D0012373E1FB681B681A69FB689A
:100A1C005B6AD2B21A70FB685B6A5A1CFB685A623A
:100A2C00FB681B8D013B9AB2FB681A85FB685B8DDA
:100A3C009BB2013B9AB2FB685A8545E1FB681B8D62
:100A4C00022B52D17B6A0093BB6B00220649F868DB
:100A5C0000F040FA0346002B08D0012348E100BF08
:100A6C00020010000000FFFF0400010072B600BF7E
:100A7C00FB681B681A68FB681B6842F400721A60FA
:100A8C00FB681B681A69FB685B6AD2B21A70FB6858
:100A9C005B6A5A1CFB685A62FB681B8D013B9AB25D
:100AAC00FB681A85FB685B8D9BB2013B9AB2FB68B5
:100ABC005A8562B600BFFB681B681A69FB685B6AE3
:100ACC00D2B21A70FB685B6A5A1CFB685A62FB68EC
:100ADC001B8D013B9AB2FB681A85FB685B8D9BB240
:100AEC00013B9AB2FB685A85EEE07B6A0093BB6BC4
:100AFC0000228149F86800F0EDF90346002B01D083
:100B0C000123F5E0FB681B681A68FB681B6822F47C
:100B1C0080621A6072B600BFFB681B681A69FB68BA
:100B2C005B6AD2B21A70FB685B6A5A1CFB685A6229
:100B3C00FB681B8D013B9AB2FB681A85FB685B8DC9
:100B4C009BB2013B9AB2FB685A856C4B1B68DB0865
:100B5C006B4AA2FB03231A0A13469B001344DA00C8
:100B6C00D31A3B623B6A013B3B623B6A002B18D1B8
:100B7C00FB6800221A63FB68202283F83D20FB6887
:100B8C00002283F83E20FB681B6C43F02002FB68BC
:100B9C001A6462B600BFFB68002283F83C20012374
:100BAC00A6E0FB681B685B6903F00403042BD9D136
:100BBC00FB681B681A68FB681B6842F400721A60B9
:100BCC00FB681B681A69FB685B6AD2B21A70FB6817
:100BDC005B6A5A1CFB685A62FB681B8D013B9AB21C
:100BEC00FB681A85FB685B8D9BB2013B9AB2FB6874
:100BFC005A8562B600BFFB681B681A69FB685B6AA2
:100C0C00D2B21A70FB685B6A5A1CFB685A62FB68AA
:100C1C001B8D013B9AB2FB681A85FB685B8D9BB2FE
:100C2C00013B9AB2FB685A854EE07A6AB96BF86858
:100C3C0000F0B2FA0346002B01D0012358E0FB6808
:100C4C001B681A69FB685B6AD2B21A70FB685B6A34
:100C5C005A1CFB685A62FB681B8D013B9AB2FB68FD
:100C6C001A85FB685B8D9BB2013B9AB2FB685A8577
:100C7C00FB681B685B6903F00403042B24D1FB683D
:100C8C001B8D032B07D1FB681B681A68FB681B685C
:100C9C0022F480621A60FB681B681A69FB685B6A45
:100CAC00D2B21A70FB685B6A5A1CFB685A62FB680A
:100CBC001B8D013B9AB2FB681A85FB685B8D9BB25E
:100CCC00013B9AB2FB685A85FB681B8D002B7FF4A5
:100CDC0088AEFB68202283F83D20FB68002283F855
:100CEC003E20FB68002283F83C20002300E0022316
:100CFC0018462837BD4680BD0400010000000020C6
:100D0C0089B5F81480B588B002AFF8600846114672
:100D1C001A4603467B810B463B811346FB80FB68DE
:100D2C001B681A68FB681B6842F480621A60FB68D7
:100D3C001B681A68FB681B6842F480721A607B6A35
:100D4C0000933B6A00224FF00111F86800F0C2F8E2
:100D5C000346002B0DD0FB681B681B6803F48073E3
:100D6C00B3F5807F03D1FB684FF400721A64032340
:100D7C00AAE07B89DBB21A46FB681B6802F0FE0214
:100D8C001A617B6A3A6A5249F86800F01DF9034609
:100D9C00002B01D0012397E000237B61FB681B68CB
:100DAC005B697B61FB681B689B697B617B697A6A09
:100DBC00396AF86800F0A8F90346002B0DD0FB68DF
:100DCC001B6C042B07D1FB681B681A68FB681B683B
:100DDC0042F400721A60012376E0FB88012B05D1E6
:100DEC003B89DAB2FB681B681A6121E03B891B0A5C
:100DFC009BB2DAB2FB681B681A617A6A396AF868C6
:100E0C0000F082F90346002B0DD0FB681B6C042B01
:100E1C0007D1FB681B681A68FB681B6842F40072F8
:100E2C001A60012350E03B89DAB2FB681B681A6137
:100E3C007A6A396AF86800F067F90346002B0DD01E
:100E4C00FB681B6C042B07D1FB681B681A68FB68DA
:100E5C001B6842F400721A60012335E0FB681B68C2
:100E6C001A68FB681B6842F480721A607B6A0093F4
:100E7C003B6A00224FF00111F86800F02BF8034692
:100E8C00002B0DD0FB681B681B6803F48073B3F553
:100E9C00807F03D1FB684FF400721A64032313E0C4
:100EAC007B89DBB243F00103DAB2FB681B681A6181
:100EBC007B6A3A6A0649F86800F086F80346002B0C
:100ECC0001D0012300E0002318461837BD4680BD31
:100EDC000200010080B584B000AFF860B9603B60DF
:100EEC001346FB7148E03B68B3F1FF3F44D001F07F
:100EFC0041FE0246BB69D31A3A689A4202D33B6858
:100F0C00002B39D1BB681B0CDBB2012B0DD1FB685C
:100F1C001B685B69DA43BB6813409BB2002B0CBFA8
:100F2C0001230023DBB21A460CE0FB681B689B69AB
:100F3C00DA43BB6813409BB2002B0CBF0123002388
:100F4C00DBB21A46FB799A4216D1FB6800221A636F
:100F5C00FB68202283F83D20FB68002283F83E20AA
:100F6C00FB681B6C43F02002FB681A64FB680022D0
:100F7C0083F83C20012323E0BB681B0CDBB2012B64
:100F8C000DD1FB681B685B69DA43BB6813409BB2ED
:100F9C00002B0CBF01230023DBB21A460CE0FB68CC
:100FAC001B689B69DA43BB6813409BB2002B0CBFD8
:100FBC0001230023DBB21A46FB799A4293D000231B
:100FCC0018461037BD4680BD80B584B000AFF860C0
:100FDC00B9607A603B6071E0FB681B685B6903F485
:100FEC008063B3F5806F23D1FB681B681A68FB68BC
:100FFC001B6842F400721A60FB681B686FF4806215
:10100C005A61FB6800221A63FB68202283F83D209A
:10101C00FB68002283F83E20FB681B6C43F0040243
:10102C00FB681A64FB68002283F83C20012367E00C
:10103C007B68B3F1FF3F41D001F09CFD02463B6859
:10104C00D31A7A689A4202D37B68002B36D1BB68DC
:10105C001B0CDBB2012B0CD1FB681B685B69DA4300
:10106C00BB6813409BB2002B14BF01230023DBB2DF
:10107C000BE0FB681B689B69DA43BB6813409BB2AF
:10108C00002B14BF01230023DBB2002B16D0FB680E
:10109C0000221A63FB68202283F83D20FB680022A3
:1010AC0083F83E20FB681B6C43F02002FB681A643B
:1010BC00FB68002283F83C20012321E0BB681B0C59
:1010CC00DBB2012B0CD1FB681B685B69DA43BB6894
:1010DC0013409BB2002B14BF01230023DBB20BE0A7
:1010EC00FB681B689B69DA43BB6813409BB2002BFF
:1010FC0014BF01230023DBB2002B7FF46DAF002360
:10110C0018461037BD4680BD80B584B000AFF8607E
:10111C00B9607A6034E0F86800F09BF80346002B65
:10112C0001D0012334E0BB68B3F1FF3F28D001F0BC
:10113C0021FD02467B68D31ABA689A4202D3BB6877
:10114C00002B1DD1FB681B685B6903F08003802BAF
:10115C0016D0FB6800221A63FB68202283F83D201E
:10116C00FB68002283F83E20FB681B6C43F02002D6
:10117C00FB681A64FB68002283F83C20012307E01B
:10118C00FB681B685B6903F08003802BC3D10023D1
:10119C0018461037BD4680BD80B584B000AFF860EE
:1011AC00B9607A6049E0FB681B685B6903F0100367
:1011BC00102B19D1FB681B686FF010025A61FB6889
:1011CC0000221A63FB68202283F83D20FB68002272
:1011DC0083F83E20FB681A6CFB681A64FB680022DB
:1011EC0083F83C20012330E001F0C4FC02467B680C
:1011FC00D31ABA689A4202D3BB68002B1DD1FB6884
:10120C001B685B6903F04003402B16D0FB6800227F
:10121C001A63FB68202283F83D20FB68002283F8C8
:10122C003E20FB681B6C43F02002FB681A64FB68D1
:10123C00002283F83C20012307E0FB681B685B69F4
:10124C0003F04003402BAED1002318461037BD46A7
:10125C0080BD80B483B000AF78607B681B685B692D
:10126C0003F48063B3F5806F1BD17B681B686FF44C
:10127C0080625A617B6800221A637B68202283F8A3
:10128C003D207B68002283F83E207B681B6C43F07A
:10129C0004027B681A647B68002283F83C200123DB
:1012AC0000E0002318460C37BD4680BC704780B563
:1012BC0082B000AF78607B68002B01D1012376E00F
:1012CC007B685B6A002B08D17B685B68B3F5827F17
:1012DC0009D07B680022DA6105E07B6800221A6184
:1012EC007B6800225A617B6800229A627B6893F8C3
:1012FC005130DBB2002B06D17B68002283F85020E2
:10130C00786803F0D5F97B68022283F851207B685A
:10131C001B681A687B681B6822F040021A607B68A5
:10132C005B6803F482727B689B6803F404431A4382
:10133C007B68DB6803F400631A437B681B6903F06A
:10134C0002031A437B685B6903F001031A437B6851
:10135C009B6903F400731A437B68DB6903F0380361
:10136C001A437B681B6A03F0800342EA03017B6823
:10137C009B6A03F400527B681B680A431A607B6803
:10138C009B691A0C7B681B6802F004025A607B682C
:10139C001B68DA697B681B6822F40062DA617B687F
:1013AC0000225A657B68012283F8512000231846DD
:1013BC000837BD4680BD80B588B000AFF860B96015
:1013CC003B601346FB8001F0D5FBF861FB887B8307
:1013DC00FB6893F85130DBB2012B01D002232AE1D8
:1013EC00BB68002B02D0FB88002B01D1012322E12A
:1013FC00FB6893F85030012B01D102231BE1FB68F1
:10140C00012283F85020FB68032283F85120FB68EB
:10141C0000225A65FB68BA681A63FB68FA889A86D8
:10142C00FB68FA88DA86FB6800229A63FB68002264
:10143C009A87FB680022DA87FB6800225A64FB68F3
:10144C0000221A64FB689B68B3F5004F0FD1FB6850
:10145C001B681A68FB681B6822F040021A60FB6864
:10146C001B681A68FB681B6842F480421A60FB68B0
:10147C001B681B6803F04003402B07D0FB681B68FC
:10148C001A68FB681B6842F040021A60FB68DB6854
:10149C00B3F5006F52D1FB685B68002B02D07B8BDD
:1014AC00012B45D1FB681B6B1A88FB681B68DA6043
:1014BC00FB681B6B9A1CFB681A63FB68DB8E9BB288
:1014CC00013B9AB2FB68DA8632E0FB681B689B68CA
:1014DC0003F00203022B12D1FB681B6B1A88FB680A
:1014EC001B68DA60FB681B6B9A1CFB681A63FB6851
:1014FC00DB8E9BB2013B9AB2FB68DA8618E001F0F6
:10150C0039FB0246FB69D31A3A689A4203D83B6806
:10151C00B3F1FF3F02D13B68002B09D1FB680122DC
:10152C0083F85120FB68002283F85020032382E0CB
:10153C00FB68DB8E9BB2002BC7D153E0FB685B686A
:10154C00002B02D07B8B012B47D1FB681A6BFB68FD
:10155C001B680C3312781A70FB681B6B5A1CFB68E7
:10156C001A63FB68DB8E9BB2013B9AB2FB68DA868E
:10157C0033E0FB681B689B6803F00203022B13D15A
:10158C00FB681A6BFB681B680C3312781A70FB68CB
:10159C001B6B5A1CFB681A63FB68DB8E9BB2013B0E
:1015AC009AB2FB68DA8618E001F0E4FA0246FB69AD
:1015BC00D31A3A689A4203D83B68B3F1FF3F02D181
:1015CC003B68002B09D1FB68012283F85120FB6892
:1015DC00002283F8502003232DE0FB68DB8E9BB2A6
:1015EC00002BC6D1FA693968F86800F0C5FB0346D0
:1015FC00002B02D0FB6820225A65FB689B68002BED
:10160C000AD100237B61FB681B68DB687B61FB688C
:10161C001B689B687B617B69FB68012283F8512006
:10162C00FB68002283F85020FB685B6D002B01D017
:10163C00012300E0002318462037BD4680BD80B54D
:10164C0088B002AFF860B9603B601346FB80FB6862
:10165C0093F85130DBB2012B01D0022304E1FB687B
:10166C005B68B3F5827F12D1FB689B68002B0ED1AF
:10167C00FB68042283F85120FA883B6800931346D8
:10168C00BA68B968F86800F0F3F80346ECE001F0CA
:10169C0071FA7861BB68002B02D0FB88002B01D15A
:1016AC000123E1E0FB6893F85030012B01D10223B8
:1016BC00DAE0FB68012283F85020FB68042283F8EF
:1016CC005120FB6800225A65FB68BA689A63FB6874
:1016DC00FA889A87FB68FA88DA87FB6800221A6313
:1016EC00FB6800229A86FB680022DA86FB680022DF
:1016FC001A64FB6800225A64FB689B68B3F5004FC0
:10170C000FD1FB681B681A68FB681B6822F040024B
:10171C001A60FB681B681A68FB681B6822F480421D
:10172C001A60FB681B681B6803F04003402B07D052
:10173C00FB681B681A68FB681B6842F040021A6061
:10174C00FB68DB68002B70D135E0FB681B689B687D
:10175C0003F00103012B15D1FB681B6803F10C028C
:10176C00FB689B6B1278D2B21A70FB689B6B5A1C8D
:10177C00FB689A63FB68DB8F9BB2013B9AB2FB68F8
:10178C00DA8718E001F0F6F902467B69D31A3A6859
:10179C009A4203D83B68B3F1FF3F02D13B68002B60
:1017AC0009D1FB68012283F85120FB68002283F8E1
:1017BC005020032358E0FB68DB8F9BB2002BC4D175
:1017CC0038E0FB681B689B6803F00103012B13D105
:1017DC00FB681B68DA68FB689B6B92B21A80FB682B
:1017EC009B6B9A1CFB689A63FB68DB8F9BB2013B7B
:1017FC009AB2FB68DA8718E001F0BCF902467B6903
:10180C00D31A3A689A4203D83B68B3F1FF3F02D12E
:10181C003B68002B09D1FB68012283F85120FB683F
:10182C00002283F8502003231EE0FB68DB8F9BB261
:10183C00002BC6D17A693968F86800F04BFA034678
:10184C00002B02D0FB6820225A65FB68012283F82A
:10185C005120FB68002283F85020FB685B6D002B45
:10186C0001D0012300E0002318461837BD4680BD87
:10187C0080B58AB000AFF860B9607A607B800123D4
:10188C007B6201F077F93862FB6893F85130FB7793
:10189C00FB685B68BB617B88FB82FB7F012B0CD0F8
:1018AC00BB69B3F5827F06D1FB689B68002B02D124
:1018BC00FB7F042B01D002237FE1BB68002B05D0FA
:1018CC007B68002B02D07B88002B01D1012374E1B3
:1018DC00FB6893F85030012B01D102236DE1FB68BA
:1018EC00012283F85020FB6893F85130DBB2042BB3
:1018FC0003D0FB68052283F85120FB6800225A654F
:10190C00FB687A689A63FB687A88DA87FB687A885E
:10191C009A87FB68BA681A63FB687A88DA86FB6870
:10192C007A889A86FB6800221A64FB6800225A6443
:10193C00FB681B681B6803F04003402B07D0FB6857
:10194C001B681A68FB681B6842F040021A60FB684F
:10195C00DB68B3F5006F7ED1FB685B68002B02D0AF
:10196C00FB8A012B6CD1FB681B6B1A88FB681B680C
:10197C00DA60FB681B6B9A1CFB681A63FB68DB8ED6
:10198C009BB2013B9AB2FB68DA8659E0FB681B6894
:10199C009B6803F00203022B1BD1FB68DB8E9BB20E
:1019AC00002B16D07B6A012B13D1FB681B6B1A889A
:1019BC00FB681B68DA60FB681B6B9A1CFB681A637C
:1019CC00FB68DB8E9BB2013B9AB2FB68DA86002384
:1019DC007B62FB681B689B6803F00103012B19D128
:1019EC00FB68DB8F9BB2002B14D0FB681B68DA689A
:1019FC00FB689B6B92B21A80FB689B6B9A1CFB6812
:101A0C009A63FB68DB8F9BB2013B9AB2FB68DA8767
:101A1C0001237B6201F0AEF802463B6AD31A3A6BA3
:101A2C009A420DD83B6BB3F1FF3F09D0FB68012202
:101A3C0083F85120FB68002283F850200323BCE07C
:101A4C00FB68DB8E9BB2002BA0D1FB68DB8F9BB2BB
:101A5C00002B9BD182E0FB685B68002B02D0FB8AD9
:101A6C00012B71D1FB681A6BFB681B680C33127865
:101A7C001A70FB681B6B5A1CFB681A63FB68DB8EC5
:101A8C009BB2013B9AB2FB68DA865DE0FB681B688F
:101A9C009B6803F00203022B1CD1FB68DB8E9BB20C
:101AAC00002B17D07B6A012B14D1FB681A6BFB68D7
:101ABC001B680C3312781A70FB681B6B5A1CFB6882
:101ACC001A63FB68DB8E9BB2013B9AB2FB68DA8629
:101ADC0000237B62FB681B689B6803F00103012BEE
:101AEC0019D1FB68DB8F9BB2002B14D0FB681B68F1
:101AFC00DA68FB689B6BD2B21A70FB689B6B5A1C42
:101B0C00FB689A63FB68DB8F9BB2013B9AB2FB6864
:101B1C00DA8701237B6201F02DF802463B6AD31A67
:101B2C003A6B9A4203D83B6BB3F1FF3F02D13B6B4C
:101B3C00002B09D1FB68012283F85120FB6800229D
:101B4C0083F85020032338E0FB68DB8E9BB2002B1C
:101B5C009CD1FB68DB8F9BB2002B97D13A6A396B17
:101B6C00F86800F009F90346002B08D0FB68202226
:101B7C005A65FB68002283F8502001231DE0FB68A6
:101B8C009B68002B0AD100233B61FB681B68DB6858
:101B9C003B61FB681B689B683B613B69FB680122EE
:101BAC0083F85120FB68002283F85020FB685B6DA2
:101BBC00002B01D0012300E0002318462837BD4636
:101BCC0080BD000080B588B000AFF860B9603B60A4
:101BDC001346FB7100F0CEFF0246BB6A9B1A3A68B3
:101BEC001344FB6100F0C6FFB861394B1B685B0105
:101BFC001B0DFA6902FB03F37B6154E03B68B3F104
:101C0C00FF3F50D000F0B6FF0246BB69D31AFA6909
:101C1C009A4202D9FB69002B3DD1FB681B685A68BC
:101C2C00FB681B6822F0E0025A60FB685B68B3F546
:101C3C00827F11D1FB689B68B3F5004F04D0FB6821
:101C4C009B68B3F5806F07D1FB681B681A68FB684B
:101C5C001B6822F040021A60FB689B6AB3F5005FB8
:101C6C000FD1FB681B681A68FB681B6822F40052D2
:101C7C001A60FB681B681A68FB681B6842F4005208
:101C8C001A60FB68012283F85120FB68002283F85C
:101C9C005020032317E07B69002B01D10023FB614B
:101CAC007B69013B7B61FB681B689A68BB681340CE
:101CBC00BA689A420CBF01230023DBB21A46FB79A7
:101CCC009A429BD1002318462037BD4680BD00BFE9
:101CDC000000002080B586B002AFF860B9607A6071
:101CEC00FB685B68B3F5827F11D1FB689B68B3F529
:101CFC00004F04D0FB689B68B3F5806F07D1FB687D
:101D0C001B681A68FB681B6822F040021A60FB68AB
:101D1C005B68B3F5827F17D1FB689B68B3F5806F66
:101D2C0012D17B680093BB6800220121F868FFF791
:101D3C0049FF0346002B1AD0FB685B6D43F0200271
:101D4C00FB685A65032313E07B680093BB68002291
:101D5C008021F868FFF736FF0346002B07D0FB689D
:101D6C005B6D43F02002FB685A65032300E00023FF
:101D7C0018461037BD4680BD80B586B002AFF860FE
:101D8C00B9607A607B680093BB6801220221F86815
:101D9C00FFF718FF0346002B07D0FB685B6D43F081
:101DAC002002FB685A65032313E07B680093BB6831
:101DBC0000228021F868FFF705FF0346002B07D0AF
:101DCC00FB685B6D43F02002FB685A65032300E05F
:101DDC00002318461037BD4680BD80B582B000AFD9
:101DEC0078607B68002B01D1012342E07B6893F87B
:101DFC004130DBB2002B06D17B68002283F84020F7
:101E0C00786802F0CBFC7B68242283F841207B6845
:101E1C001B68DA687B681B6822F40052DA60786809
:101E2C0000F008FA7B681B681A697B681B6822F44F
:101E3C0090421A617B681B685A697B681B6822F0A8
:101E4C002A025A617B681B68DA687B681B6842F45B
:101E5C000052DA607B6800225A647B68202283F887
:101E6C0041207B68202283F842207B6800225A6341
:101E7C00002318460837BD4680BD80B58AB002AF36
:101E8C00F860B9603B601346FB8000237B61FB6804
:101E9C0093F84130DBB2202B75D1BB68002B02D0FC
:101EAC00FB88002B01D101236EE0FB6800225A64F1
:101EBC00FB68212283F8412000F05CFE7861FB680E
:101ECC00FA889A84FB68FA88DA84FB689B68B3F515
:101EDC00805F08D1FB681B69002B04D10023FB61D8
:101EEC00BB68BB6103E0BB68FB610023BB612EE0F8
:101EFC003B6800937B6900228021F86800F0DFF8D2
:101F0C000346002B05D0FB68202283F841200323D5
:101F1C003AE0FB69002B0BD1BB691B881A46FB68A6
:101F2C001B68C2F308025A60BB690233BB6107E04D
:101F3C00FB691A78FB681B685A60FB690133FB610B
:101F4C00FB68DB8C9BB2013B9AB2FB68DA84FB68C2
:101F5C00DB8C9BB2002BCBD13B6800937B690022BE
:101F6C004021F86800F0ABF80346002B05D0FB6865
:101F7C00202283F84120032306E0FB68202283F80B
:101F8C004120002300E0022318462037BD4680BDC7
:101F9C0080B58AB002AFF860B9603B601346FB8035
:101FAC0000237B61FB6893F84230DBB2202B40F0BE
:101FBC008180BB68002B02D0FB88002B01D1012350
:101FCC0079E0FB6800225A64FB68222283F84220E5
:101FDC00FB6800221A6300F0CDFD7861FB68FA887B
:101FEC009A85FB68FA88DA85FB689B68B3F5805F95
:101FFC0008D1FB681B69002B04D10023FB61BB6873
:10200C00BB6103E0BB68FB610023BB6147E03B683D
:10201C0000937B6900222021F86800F050F80346F9
:10202C00002B05D0FB68202283F84220032342E0DA
:10203C00FB69002B0CD1FB681B685B689BB2C3F37C
:10204C0008039AB2BB691A80BB690233BB611FE0FB
:10205C00FB689B68B3F5805F07D0FB689B68002B1F
:10206C000AD1FB681B69002B06D1FB681B685B68F7
:10207C00DAB2FB691A7008E0FB681B685B68DBB2BC
:10208C0003F07F03DAB2FB691A70FB690133FB6161
:10209C00FB68DB8D9BB2013B9AB2FB68DA85FB686F
:1020AC00DB8D9BB2002BB2D1FB68202283F842203F
:1020BC00002300E0022318462037BD4680BD80B5C2
:1020CC0086B000AFF860B9603B601346FB713BE033
:1020DC003B6AB3F1FF3F37D000F04CFD02463B6842
:1020EC00D31A3A6A9A4202D33B6A002B01D10323DA
:1020FC003AE0FB681B68DB6803F00403002B23D079
:10210C00BB68802B20D0BB68402B1DD0FB681B68A4
:10211C001B6803F00803082B16D100237B61FB68B6
:10212C001B681B687B61FB681B685B687B617B6958
:10213C00F86800F01DF8FB6808225A64FB6800225E
:10214C0083F8402001230FE0FB681B681A68BB680A
:10215C001340BA689A420CBF01230023DBB21A4623
:10216C00FB799A42B4D0002318461837BD4680BD7F
:10217C0080B495B000AF78607B681B680C337B63D0
:10218C007B6B53E8003F3B633B6B23F49073FB6426
:10219C007B681B680C33FA6C3A64FB63F96B3A6C22
:1021AC0041E80023BB63BB6B002BE5D17B681B684C
:1021BC0014333B623B6A53E8003FFB61FB6923F03D
:1021CC000103BB647B681B681433BA6CFA62BB6294
:1021DC00B96AFA6A41E800237B627B6A002BE5D17D
:1021EC007B681B6B012B19D17B681B680C33FB6064
:1021FC00FB6853E8003FBB60BB6823F010037B64B3
:10220C007B681B680C337A6CBA617B617969BA693B
:10221C0041E800233B613B69002BE5D17B68202220
:10222C0083F842207B6800221A6300BF5437BD46F6
:10223C0080BC704780B584B000AF78607B681B6849
:10224C001B6923F440517B68DA687B681B680A437E
:10225C001A617B689A687B681B691A437B685B69A7
:10226C001343BB607B681B68DB6823F4B05323F01B
:10227C000C037A681268B9680B43D3607B681B68DF
:10228C005B6923F440717B689A697B681B680A431D
:10229C005A617B681B682C4A934203D101F076F893
:1022AC00F86002E001F05EF8F860FA6813469B00F3
:1022BC0013449A001A447B685B689B00B2FBF3F3EF
:1022CC00224AA2FB03235B091901FA6813469B00FF
:1022DC0013449A001A447B685B689B00B2FBF3F2D0
:1022EC001A4BA3FB02035B09642000FB03F3D31A14
:1022FC001B013233154AA2FB03235B0903F0F003E5
:10230C001944FA6813469B0013449A001A447B68DC
:10231C005B689B00B2FBF3F20C4BA3FB02035B0963
:10232C00642000FB03F3D31A1B013233074AA2FBD0
:10233C0003235B0903F00F027B681B680A449A6055
:10234C0000BF1037BD4680BD003801401F85EB51E2
:10235C0080B584B000AF78600023FB607B68002BF5
:10236C0001D101237AE07B685B7CDBB2002B05D1C9
:10237C007B6800221A74786802F0A6FA7B68022245
:10238C005A74786800F0BEF90346002B04D07B68C1
:10239C0004225A74012361E0786800F077FA03464E
:1023AC00002B04D07B6804225A74012356E07B680E
:1023BC001B685A687B681B6822F007025A607B68AE
:1023CC009B68002B05D0274B1B6B264A23F001037F
:1023DC001363244BDB6A23F460727B689B6821498E
:1023EC001343CB627B685B68B3F1FF3F03D07B6820
:1023FC005B68FB600EE0012001F0B0F8F860FB6850
:10240C00002B04D17B6804225A74012326E0FB685C
:10241C00013BFB60FB681A0C7B681B6802F00F0227
:10242C009A607B681B68FA6892B2DA60786800F090
:10243C0055FA0346002B04D07B6804225A740123FE
:10244C000CE07B680022DA737B6801225A737B688C
:10245C0001229A737B6801225A74002318461037A4
:10246C00BD4680BD006C004090B587B000AFF860F1
:10247C00B9607A6000237B6100233B61FB68002B11
:10248C0002D0BB68002B01D1012380E0FB681B7CD0
:10249C00012B01D102237AE0FB6801221A74FB683C
:1024AC0002225A747B68002B13D1BB681B781A4626
:1024BC004FF4616303FB02F2BB685B7819460B4671
:1024CC001B015B1A9B001344BA68927813447B611E
:1024DC001EE0BB681B78184600F028FA03461A4623
:1024EC004FF4616303FB02F4BB685B78184600F0A1
:1024FC001DFA03461A4613461B019B1A9B001C44EB
:10250C00BB689B78184600F011FA034623447B61A4
:10251C007969F86800F053F90346002B07D0FB6883
:10252C0004225A74FB6800221A7401232FE0FB6802
:10253C001B685A68FB681B6822F005025A60F86831
:10254C0000F064F938613B69B3F1FF3F18D03A6988
:10255C007B699A4214D23B6903F5A83303F5C07327
:10256C003B613969F86800F06AF90346002B07D023
:10257C00FB6804225A74FB6800221A74012306E0DB
:10258C00FB6801225A74FB6800221A740023184657
:10259C001C37BD4690BD000080B588B000AFF86018
:1025AC00B9607A600023FB610023BB6100237B616F
:1025BC00FB68002B02D0BB68002B01D1012397E0F4
:1025CC00FB681B7C012B01D1022391E0FB680122EB
:1025DC001A74FB6802225A747B68002B0CD1BB68FE
:1025EC00DA78FB68DA73BB685A78FB685A73BB6895
:1025FC009A78FB689A731AE0BB68DB78184600F08F
:10260C0095F903461A46FB68DA73BB685B78184683
:10261C0000F08CF903461A46FB685A73BB689B782A
:10262C00184600F083F903461A46FB689A73FB6858
:10263C00DB7B1846FB68597BFB689B7B1A4600F0DA
:10264C0093F903461A46FB681A73FB681A7BBB683E
:10265C001A70F86800F083F8F861FB69264AA2FB4F
:10266C000323DB0A7B617B69182B3AD97B69234AEC
:10267C00A2FB03231B09224A02FB03F3FA69D31AB8
:10268C00FB61F969F86800F09AF80346002B07D053
:10269C00FB6804225A74FB6800221A74012327E099
:1026AC00F86800F0B3F8B861BB69B3F1FF3F18D01C
:1026BC00BA69FB699A4214D2BB6903F5A83303F5D6
:1026CC00C073BB61B969F86800F0B9F80346002B18
:1026DC0007D0FB6804225A74FB6800221A74012389
:1026EC0006E0FB6801225A74FB6800221A7400236E
:1026FC0018462037BD4680BDC5B3A291ABAAAAAA85
:10270C008051010080B584B000AF78600023FB607D
:10271C007B68002B01D101231DE07B681B685A6884
:10272C007B681B6822F008025A6000F023FAF860FC
:10273C0009E000F01FFA0246FB68D31AB3F57A7F62
:10274C0001D9032307E07B681B685B6803F008036F
:10275C00002BEED0002318461037BD4680BD80B448
:10276C0087B000AF786000237B8200233B8200237C
:10277C00FB8100237B617B681B689B697B827B6888
:10278C001B68DB69FB817B681B689B693B827A8ACF
:10279C003B8A9A4208D03B8A1A047B681B68DB6927
:1027AC009BB213437B6104E07B8A1A04FB891343BD
:1027BC007B617B6918461C37BD4680BC704780B571
:1027CC0084B000AF786039600023FB73786800F048
:1027DC005DF80346002B02D00123FB7311E07B68EC
:1027EC001B683A68120C9A617B681B683A6892B253
:1027FC00DA61786800F072F80346002B01D00123EF
:10280C00FB73FB7B18461037BD4680BD80B485B08A
:10281C0000AF78600023FB810023BB817B681B68C1
:10282C001B6AFB817B681B685B6ABB81FB891A0492
:10283C00BB89134318461437BD4680BC704780B51E
:10284C0084B000AF786039600023FB73786800F0C7
:10285C001DF80346002B02D00123FB7311E07B68AB
:10286C001B683A68120C1A627B681B683A6892B251
:10287C005A62786800F032F80346002B01D001232D
:10288C00FB73FB7B18461037BD4680BD80B584B00A
:10289C0000AF78600023FB6000F06CF9F86009E091
:1028AC0000F068F90246FB68D31AB3F57A7F01D9B8
:1028BC0003230FE07B681B685B6803F02003002B8D
:1028CC00EED07B681B685A687B681B6842F010026C
:1028DC005A60002318461037BD4680BD80B584B0C1
:1028EC0000AF78600023FB607B681B685A687B68CC
:1028FC001B6822F010025A6000F03CF9F86009E005
:10290C0000F038F90246FB68D31AB3F57A7F01D987
:10291C00032307E07B681B685B6803F02003002B34
:10292C00EED0002318461037BD4680BD80B485B06C
:10293C0000AF0346FB710023FB60FB791B09DBB284
:10294C001A4613469B0013445B00FB60FB7903F0B3
:10295C000F03DAB2FB68DBB21344DBB21846143750
:10296C00BD4680BC7047000080B485B000AF786075
:10297C000B46FB701346BB700023BB600023FB604F
:10298C007B6803F5FA63BB60FB78022B2DD8FA78D1
:10299C0013465B001344DB009B1A2C4AA2FB032357
:1029AC005A08BB781A44BB681A44BB68013B9B08A5
:1029BC001A44BB68013B2649A1FB03135B09D21ADD
:1029CC00BB68013B2249A1FB0313DB0913441A1D0D
:1029DC00204BA3FB0213D11A49080B4499080B4650
:1029EC00DB005B1AD31AFB6029E0FA7813465B0014
:1029FC001344DB009B1A154AA2FB03235A08BB782D
:102A0C001A44BB681A44BB689B081A44BB6810493B
:102A1C00A1FB03135B09D21ABB680D49A1FB03137D
:102A2C00DB0913449A1C0B4BA3FB0213D11A490864
:102A3C000B4499080B46DB005B1AD31AFB60FB684E
:102A4C00DBB218461437BD4680BC7047398EE3386C
:102A5C001F85EB512549922480B487B000AFF860F4
:102A6C00B9607A6000237B61074B7B61BB689B007C
:102A7C007A6913447B617B697A6892B21A6000BFF1
:102A8C001C37BD4680BC7047006C004080B485B0DC
:102A9C0000AF786039600023FB600023BB60084BFB
:102AAC00FB603B689B00FA681344FB60FB681B6887
:102ABC009BB2BB60BB6818461437BD4680BC7047E0
:102ACC00006C004080B500AF084B1B68074A43F010
:102ADC0010031360032001F06FF90F2000F008F8C9
:102AEC0001F042FF0023184680BD00BF00200240C9
:102AFC0080B582B000AF7860124B1A68124B1B780D
:102B0C0019464FF47A73B3FBF1F3B2FBF3F31846A7
:102B1C0001F095F90346002B01D001230EE07B68F0
:102B2C000F2B0AD8002279684FF0FF3001F04FF9D3
:102B3C00064A7B681360002300E00123184608371F
:102B4C00BD4680BD000000200800002004000020CD
:102B5C0080B400AF054B1B781A46054B1B68134419
:102B6C00034A136000BFBD4680BC704708000020BC
:102B7C007C00002080B400AF024B1B681846BD4699
:102B8C0080BC70477C00002080B584B000AF7860BA
:102B9C00FFF7F0FFB8607B68FB60FB68B3F1FF3FA9
:102BAC0005D00A4B1B781A46FB681344FB6000BF28
:102BBC00FFF7E0FF0246BB68D31AFA689A42F7D8CF
:102BCC0000BF00BF1037BD4680BD00BF080000200D
:102BDC0080B586B000AF78607B68002B01D10123F3
:102BEC0072E27B681B6803F00103002B00F0878006
:102BFC00924B5B6803F00C03042B0CD08F4B5B687F
:102C0C0003F00C03082B12D18C4B5B6803F480335C
:102C1C00B3F5803F0BD1894B1B6803F40033002BB9
:102C2C006CD07B685B68002B68D101234CE27B681D
:102C3C005B68B3F5803F06D1804B1B687F4A43F439
:102C4C00803313602EE07B685B68002B0CD17B4BD0
:102C5C001B687A4A23F480331360784B1B68774ADD
:102C6C0023F4802313601DE07B685B68B3F5A02F11
:102C7C000CD1724B1B68714A43F4802313606F4B69
:102C8C001B686E4A43F4803313600BE06B4B1B687C
:102C9C006A4A23F480331360684B1B68674A23F439
:102CAC00802313607B685B68002B13D0FFF762FFF7
:102CBC00386108E0FFF75EFF02463B69D31A642BCC
:102CCC0001D9032300E25D4B1B6803F40033002B96
:102CDC00F0D014E0FFF74EFF386108E0FFF74AFF31
:102CEC0002463B69D31A642B01D90323ECE1534B05
:102CFC001B6803F40033002BF0D100E000BF7B68AD
:102D0C001B6803F00203002B63D04C4B5B6803F091
:102D1C000C03002B0BD0494B5B6803F00C03082B06
:102D2C001CD1464B5B6803F48033002B16D1434B0C
:102D3C001B6803F00203002B05D07B681B69012B79
:102D4C0001D00123C0E13D4B1B6823F0F8027B68E6
:102D5C005B69DB00394913430B603AE07B681B6904
:102D6C00002B20D0364B01221A60FFF703FF38618D
:102D7C0008E0FFF7FFFE02463B69D31A022B01D98C
:102D8C000323A1E12D4B1B6803F00203002BF0D0B1
:102D9C002A4B1B6823F0F8027B685B69DB00274930
:102DAC0013430B6015E0264B00221A60FFF7E2FE7E
:102DBC00386108E0FFF7DEFE02463B69D31A022BAE
:102DCC0001D9032380E11D4B1B6803F00203002B88
:102DDC00F0D17B681B6803F00803002B3AD07B68AA
:102DEC009B69002B19D0174B01221A60FFF7C2FE0A
:102DFC00386108E0FFF7BEFE02463B69D31A022B8E
:102E0C0001D9032360E10D4B5B6A03F00203002B35
:102E1C00F0D0012000F0CEFA1CE00A4B00221A6020
:102E2C00FFF7A8FE38610FE0FFF7A4FE02463B69EE
:102E3C00D31A022B08D9032346E100BF001002402D
:102E4C000000424280044242924B5B6A03F0020350
:102E5C00002BE9D17B681B6803F00403002B00F006
:102E6C00A6800023FB758B4BDB6903F08053002B92
:102E7C000DD1884BDB69874A43F08053D361854B76
:102E8C00DB6903F08053BB60BB680123FB75824B8D
:102E9C001B6803F48073002B18D17F4B1B687E4A90
:102EAC0043F480731360FFF765FE386108E0FFF7A9
:102EBC0061FE02463B69D31A642B01D9032303E15B
:102ECC00754B1B6803F48073002BF0D07B68DB68B8
:102EDC00012B06D16F4B1B6A6E4A43F00103136240
:102EEC002DE07B68DB68002B0CD16A4B1B6A694AAE
:102EFC0023F001031362674B1B6A664A23F0040339
:102F0C0013621CE07B68DB68052B0CD1614B1B6AE0
:102F1C00604A43F0040313625E4B1B6A5D4A43F044
:102F2C00010313620BE05B4B1B6A5A4A23F001034B
:102F3C001362584B1B6A574A23F0040313627B68D5
:102F4C00DB68002B15D0FFF715FE38610AE0FFF7A0
:102F5C0011FE02463B69D31A41F28832934201D9E1
:102F6C000323B1E04B4B1B6A03F00203002BEED0A2
:102F7C0014E0FFF7FFFD38610AE0FFF7FBFD0246A6
:102F8C003B69D31A41F28832934201D903239BE067
:102F9C00404B1B6A03F00203002BEED1FB7D012B8F
:102FAC0005D13C4BDB693B4A23F08053D3617B68F2
:102FBC00DB69002B00F08780364B5B6803F00C0359
:102FCC00082B61D07B68DB69022B46D1334B002286
:102FDC001A60FFF7CFFD386108E0FFF7CBFD024622
:102FEC003B69D31A022B01D903236DE0294B1B68D3
:102FFC0003F00073002BF0D17B681B6AB3F5803FA4
:10300C0008D1244B5B6823F400327B689B68214910
:10301C0013434B601F4B5B6823F474127B68196A73
:10302C007B685B6A0B431B4913434B601B4B0122B0
:10303C001A60FFF79FFD386108E0FFF79BFD024621
:10304C003B69D31A022B01D903233DE0114B1B68BA
:10305C0003F00073002BF0D035E0104B00221A6007
:10306C00FFF788FD386108E0FFF784FD02463B69F5
:10307C00D31A022B01D9032326E0064B1B6803F05D
:10308C000073002BF0D11EE07B68DB69012B07D1AC
:10309C00012319E000100240007000406000424221
:1030AC000B4B5B68FB60FB6803F480327B681B6A2C
:1030BC009A4206D1FB6803F470127B685B6A9A42F1
:1030CC0001D0012300E0002318461837BD4680BD0F
:1030DC000010024080B584B000AF786039607B6826
:1030EC00002B01D10123D0E06A4B1B6803F00703CE
:1030FC003A689A4210D9674B1B6823F0070265495E
:10310C003B6813430B60634B1B6803F007033A687F
:10311C009A4201D00123B8E07B681B6803F00203DC
:10312C00002B20D07B681B6803F00403002B05D018
:10313C00594B5B68584A43F4E06353607B681B68E7
:10314C0003F00803002B05D0534B5B68524A43F441
:10315C0060535360504B5B6823F0F0027B689B68B4
:10316C004D4913434B607B681B6803F00103002B34
:10317C0040D07B685B68012B07D1474B1B6803F47D
:10318C000033002B15D101237FE07B685B68022B99
:10319C0007D1414B1B6803F00073002B09D10123AD
:1031AC0073E03D4B1B6803F00203002B01D101239C
:1031BC006BE0394B5B6823F003027B685B68364934
:1031CC0013434B60FFF7D6FCF8600AE0FFF7D2FC24
:1031DC000246FB68D31A41F28832934201D9032389
:1031EC0053E02D4B5B6803F00C027B685B689B0023
:1031FC009A42EBD1274B1B6803F007033A689A42BB
:10320C0010D2244B1B6823F0070222493B6813435E
:10321C000B60204B1B6803F007033A689A4201D0FD
:10322C00012332E07B681B6803F00403002B08D0F9
:10323C00194B5B6823F4E0627B68DB681649134327
:10324C004B607B681B6803F00803002B09D0124B02
:10325C005B6823F460527B681B69DB000E491343E7
:10326C004B6000F021F802460B4B5B681B0903F026
:10327C000F030A49CB5C22FA03F3094A1360094B8A
:10328C001B681846FFF734FC002318461037BD4660
:10329C0080BD00BF00200240001002407C8000086E
:1032AC00000000200400002080B487B000AF002391
:1032BC00FB600023BB6000237B6100237B60002349
:1032CC003B611E4B5B68FB60FB6803F00C03042B3B
:1032DC0002D0082B03D027E0194B3B6127E0FB6899
:1032EC009B0C03F00F03174AD35C7B60FB6803F461
:1032FC008033002B10D0114B5B685B0C03F0010387
:10330C00114AD35CBB607B680D4A03FB02F2BB68BD
:10331C00B2FBF3F37B6104E07B680C4A02FB03F322
:10332C007B617B693B6102E0054B3B6100BF3B6904
:10333C0018461C37BD4680BC704700BF00100240C9
:10334C0000127A0094800008A480000800093D0057
:10335C0080B400AF024B1B681846BD4680BC70475A
:10336C000000002080B500AFFFF7F2FF0246054BCE
:10337C005B681B0A03F007030349CB5C22FA03F3D7
:10338C00184680BD001002408C80000880B500AF4C
:10339C00FFF7DEFF0246054B5B68DB0A03F0070311
:1033AC000349CB5C22FA03F3184680BD001002409F
:1033BC008C80000880B485B000AF78600A4B1B6825
:1033CC000A4AA2FB03235B0A7A6802FB03F3FB6045
:1033DC0000BFFB685A1EFA60002BF9D100BF00BF7A
:1033EC001437BD4680BC704700000020D34D6210DE
:1033FC0080B586B000AF786000233B610023FB6092
:10340C007B681B6803F00103002B7DD00023FB7548
:10341C004F4BDB6903F08053002B0DD14C4BDB6918
:10342C004B4A43F08053D361494BDB6903F0805323
:10343C00BB60BB680123FB75464B1B6803F48073B0
:10344C00002B18D1434B1B68424A43F48073136022
:10345C00FFF790FB386108E0FFF78CFB02463B69F5
:10346C00D31A642B01D903236DE03A4B1B6803F488
:10347C008073002BF0D0364B1B6A03F44073FB6057
:10348C00FB68002B2ED07B685B6803F44073FA68F2
:10349C009A4227D02E4B1B6A23F44073FB602E4BB1
:1034AC0001221A602C4B00221A60294AFB68136215
:1034BC00FB6803F00103002B14D0FFF75BFB3861B2
:1034CC000AE0FFF757FB02463B69D31A41F28832F8
:1034DC00934201D9032336E01D4B1B6A03F0020310
:1034EC00002BEED01A4B1B6A23F440727B685B688E
:1034FC00174913430B62FB7D012B05D1144BDB6980
:10350C00134A23F08053D3617B681B6803F00203DA
:10351C00002B08D00E4B5B6823F440427B689B6801
:10352C000B4913434B607B681B6803F01003002BA3
:10353C0008D0074B5B6823F480027B68DB68044986
:10354C0013434B60002318461837BD4680BD00BF9F
:10355C0000100240007000404004424280B588B028
:10356C0000AF786000237B610023FB6100233B618B
:10357C000023FB600023BB617B68102B0AD07B68A7
:10358C00102B00F28A807B68012B45D07B68022BC4
:10359C0075D082E0464B5B68FB60454B1B6803F0C3
:1035AC008073002B7BD0FB689B0C03F00F03414A0C
:1035BC00D35C3B61FB6803F48033002B15D03C4B90
:1035CC005B685B0C03F001033B4AD35C7B61FB68DB
:1035DC0003F48033002B0DD0384A7B69B2FBF3F235
:1035EC003B6902FB03F3FB6104E03B69344A02FBD9
:1035FC0003F3FB612E4B5B6803F48003B3F5800F80
:10360C0002D1FB69BB614AE0FB695B002D4AA2FB5E
:10361C0003235B08BB6142E0254B1B6AFB60FB6824
:10362C0003F44073B3F5807F08D1FB6803F0020309
:10363C00002B03D04FF40043BB611FE0FB6803F485
:10364C004073B3F5007F09D1194B5B6A03F0020399
:10365C00002B03D049F64043BB610FE0FB6803F439
:10366C004073B3F5407F1CD1114B1B6803F400333E
:10367C00002B16D04FF22443BB6112E011E0FFF790
:10368C0085FE02460A4B5B689B0B03F00303013378
:10369C005B00B2FBF3F3BB6104E000BF02E000BFD0
:1036AC0000E000BFBB6918462037BD4680BD00BF97
:1036BC0000100240A8800008B880000800127A00B0
:1036CC0000093D00ABAAAAAA80B48BB000AF786009
:1036DC00396000237B6200233B6269E101227B6A33
:1036EC0002FA03F3FB613B681B68FA691340BB6188
:1036FC00BA69FB699A4240F058813B685B689A4A08
:10370C0093425ED0984A934275D8984A934258D0C7
:10371C00964A93426FD8964A934252D0944A934217
:10372C0069D8944A93424CD0924A934263D8924AB5
:10373C00934246D0904A93425DD8122B2AD8122B32
:10374C0059D801A252F823F0CF370008A937000846
:10375C00BB370008FD3700080338000803380008A1
:10376C000338000803380008033800080338000841
:10377C000338000803380008033800080338000831
:10378C00033800080338000803380008B137000874
:10379C00C5370008794A934213D02CE03B68DB68AC
:1037AC003B6229E03B68DB6804333B6224E03B6806
:1037BC00DB6808333B621FE03B68DB680C333B6221
:1037CC001AE03B689B68002B02D104233B6213E098
:1037DC003B689B68012B05D108233B627B68FA6927
:1037EC001A6109E008233B627B68FA695A6103E0BD
:1037FC0000233B6200E000BFBB69FF2B01D87B6854
:10380C0001E07B6804337B61BB69FF2B02D87B6AC8
:10381C009B0002E07B6A083B9B003B617B691A685A
:10382C000F213B6901FA03F3DB431A40396A3B6908
:10383C0001FA03F31A437B691A603B685B6803F077
:10384C008053002B00F0B1804D4B9B694C4A43F0E8
:10385C00010393614A4B9B6903F00103BB60BB6896
:10386C00484A7B6A9B08023352F82330FB607B6A20
:10387C0003F003039B000F2202FA03F3DB43FA6805
:10388C001340FB607B68404A934213D07B683F4AED
:10389C0093420DD07B683E4A934207D07B683D4AE9
:1038AC00934201D1032306E0042304E0022302E047
:1038BC00012300E000237A6A02F003029200934095
:1038CC00FA681343FB602F497B6A9B080233FA6842
:1038DC0041F823203B685B6803F48013002B06D06F
:1038EC002D4B9A682C49BB6913438B6006E02A4B1D
:1038FC009A68BB69DB43284913408B603B685B6863
:10390C0003F40013002B06D0234BDA682249BB6961
:10391C001343CB6006E0204BDA68BB69DB431E49DE
:10392C001340CB603B685B6803F40033002B06D07C
:10393C00194B5A681849BB6913434B6006E0164B88
:10394C005A68BB69DB43144913404B603B685B68A6
:10395C0003F48033002B21D00F4B1A680E49BB693E
:10396C0013430B6021E000BF000032100000311047
:10397C000000221000002110000012100000111095
:10398C00001002400000014000080140000C014002
:10399C000010014000140140000401400B4B1A6858
:1039AC00BB69DB43094913400B607B6A01337B62C3
:1039BC003B681A687B6A22FA03F3002B7FF48EAE05
:1039CC0000BF00BF2C37BD4680BC704700040140CF
:1039DC0080B489B000AF786039600023FB619AE055
:1039EC000122FB6902FA03F33A681340BB61BB691D
:1039FC00002B00F08D804E4AFB699B08023352F875
:103A0C0023307B61FB6903F003039B000F2202FA56
:103A1C0003F37A6913407B617B68464A934213D067
:103A2C007B68454A93420DD07B68444A934207D049
:103A3C007B68434A934201D1032306E0042304E04C
:103A4C00022302E0012300E00023FA6902F00302E2
:103A5C00920093407A699A4232D13A4B1A68BB6908
:103A6C00DB43384913400B60364B5A68BB69DB4368
:103A7C00344913404B60334BDA68BB69DB43314943
:103A8C001340CB602F4B9A68BB69DB432D49134025
:103A9C008B60FB6903F003039B000F2202FA03F314
:103AAC007B61234AFB699B08023352F823107B6924
:103ABC00DA431F48FB699B080A40023340F8232075
:103ACC00BB69FF2B01D87B6801E07B6804333B6149
:103ADC00BB69FF2B02D8FB699B0002E0FB69083B2A
:103AEC009B00FB603B691A680F21FB6801FA03F32A
:103AFC00DB431A400421FB6801FA03F31A433B69C8
:103B0C001A607B68DA68BB69DB431A407B68DA6051
:103B1C00FB690133FB613A68FB6922FA03F3002B62
:103B2C007FF45EAF00BF00BF2437BD4680BC70473A
:103B3C000000014000080140000C01400010014051
:103B4C00001401400004014080B485B000AF7860DF
:103B5C000B467B807B689A687B881340002B02D0D5
:103B6C000123FB7301E00023FB73FB7B1846143726
:103B7C00BD4680BC704780B483B000AF78600B4604
:103B8C007B8013467B707B78002B03D07A887B6814
:103B9C001A6103E07B881A047B681A6100BF0C373A
:103BAC00BD4680BC7047000080B582B000AF0346B4
:103BBC00FB80084B5A69FB881340002B06D0054A42
:103BCC00FB885361FB88184601F0AAFE00BF08373A
:103BDC00BD4680BD0004014080B485B000AF786064
:103BEC007B6803F00703FB600C4BDB68BB60BA68B7
:103BFC004FF6FF031340BB60FB681A02BB6813430C
:103C0C0043F0BF6343F40033BB60044ABB68D3602A
:103C1C0000BF1437BD4680BC704700BF00ED00E00C
:103C2C0080B400AF044BDB681B0A03F00703184693
:103C3C00BD4680BC704700BF00ED00E080B483B08F
:103C4C0000AF0346FB7197F90730002B0BDBFB79B8
:103C5C0003F01F02064997F907305B09012000FAAF
:103C6C0002F241F8232000BF0C37BD4680BC7047E0
:103C7C0000E100E080B483B000AF0346FB7197F91C
:103C8C000730002B12DBFB7903F01F020A4997F96E
:103C9C0007305B09012000FA02F2203341F823209F
:103CAC00BFF34F8F00BFBFF36F8F00BF00BF0C3748
:103CBC00BD4680BC704700BF00E100E080B483B01B
:103CCC0000AF03463960FB7197F90730002B0ADB14
:103CDC003B68DAB20C4997F907301201D2B20B44A7
:103CEC0083F800230AE03B68DAB20849FB7903F059
:103CFC000F03043B1201D2B20B441A7600BF0C37EF
:103D0C00BD4680BC704700BF00E100E000ED00E064
:103D1C0080B489B000AFF860B9607A60FB6803F0DA
:103D2C000703FB61FB69C3F10703042B28BF0423C2
:103D3C00BB61FB690433062B02D9FB69033B00E032
:103D4C0000237B614FF0FF32BB6902FA03F3DA43C5
:103D5C00BB681A407B699A404FF0FF317B6901FACE
:103D6C0003F3D9437B680B40134318462437BD46F5
:103D7C0080BC704780B582B000AF78607B68013B37
:103D8C00B3F1807F01D301230FE00A4A7B68013B2A
:103D9C0053600F214FF0FF30FFF790FF054B0022CF
:103DAC009A60044B07221A60002318460837BD4658
:103DBC0080BD00BF10E000E080B582B000AF78603D
:103DCC007868FFF709FF00BF0837BD4680BD80B596
:103DDC0086B000AF0346B9607A60FB7300237B6149
:103DEC00FFF71EFF78617A68B9687869FFF790FF72
:103DFC00024697F90F3011461846FFF75FFF00BFD8
:103E0C001837BD4680BD80B582B000AF0346FB714C
:103E1C0097F907301846FFF711FF00BF0837BD466A
:103E2C0080BD80B582B000AF0346FB7197F90730B7
:103E3C001846FFF71FFF00BF0837BD4680BD80B591
:103E4C0082B000AF78607868FFF794FF034618469D
:103E5C000837BD4680BD000080B400AF034B012283
:103E6C001A6000BFBD4680BC704700BF20000E42E8
:103E7C0080B483B000AF78600B46FB70094B1B69B4
:103E8C00084A23F004031361FB78012B01D130BFE6
:103E9C0002E040BF20BF20BF00BF0C37BD4680BC36
:103EAC00704700BF00ED00E0F0B587B000AFF860E0
:103EBC00B960C7E900230123FB750023BB75002300
:103ECC007B752F4B1B7E012B01D1022354E02C4B15
:103EDC0001221A764CF2503000F0A8F80346FB751C
:103EEC00FB7D002B44D1FB68012B02D101237B7598
:103EFC0007E0FB68022B02D102237B7501E004234F
:103F0C007B750023BB752DE0BB7D5A00BB6802EBB3
:103F1C00030CBB7D1901D7E90023C1F12006A1F1E7
:103F2C00200022FA01F403FA06F6344323FA00F0D7
:103F3C00044323FA01F5A3B21946604600F05AF87F
:103F4C004CF2503000F072F80346FB750D4B1B69B8
:103F5C000C4A23F001031361FB7D002B07D1BB7DC1
:103F6C000133BB75BA7D7B7D9A42CDD300E000BF97
:103F7C00034B00221A76FB7D18461C37BD46F0BD5C
:103F8C00800000200020024080B483B000AF0023EA
:103F9C00FB710D4B1B6903F08003002B0DD00A4BFA
:103FAC000A4A5A60084B0A4A5A60074B1B6903F0CD
:103FBC008003002B01D00123FB71FB7918460C37D1
:103FCC00BD4680BC704700BF0020024023016745FE
:103FDC00AB89EFCD80B400AF054B1B69044A43F0AD
:103FEC008003136100231846BD4680BC704700BF98
:103FFC000020024080B483B000AF78600B467B8019
:10400C00084B0022DA61084B1B69074A43F0010395
:10401C0013617B687A881A8000BF0C37BD4680BC60
:10402C00704700BF800000200020024080B584B0A3
:10403C0000AF7860FEF79EFDF86010E07B68B3F18E
:10404C00FF3F0CD07B68002B07D0FEF793FD024698
:10405C00FB68D31A7A689A4201D2032325E0154BE8
:10406C00DB6803F00103002BE8D1124BDB6803F093
:10407C002003002B02D00F4B2022DA600D4BDB68A3
:10408C0003F01003002B0BD10A4BDB6903F0010387
:10409C00002B05D1074BDB6803F00403002B03D086
:1040AC0000F00AF8012300E0002318461037BD4643
:1040BC0080BD00BF0020024080B483B000AF00235D
:1040CC007B60234BDB6803F01003002B09D0214BE2
:1040DC00DB6943F002031F4AD3617B6843F0100392
:1040EC007B601B4BDB6803F00403002B09D0194BDE
:1040FC00DB6943F00103174AD3617B6843F0040387
:10410C007B60134BDB6903F00103002B0BD0114BCD
:10411C00DB6943F004030F4AD3610D4BDB690C4A96
:10412C0023F00103D3617B6840F20112934206D164
:10413C00074BDB69064A23F00103D36102E0044A12
:10414C007B68D36000BF0C37BD4680BC704700BF96
:10415C00002002408000002080B584B000AF786061
:10416C0039600123FB730023BB602F4B1B7E012B9B
:10417C0001D1022353E02C4B01221A767B681B6879
:10418C00022B16D14CF25030FFF750FF0346002B98
:10419C0041D1012000F04CF84CF25030FFF746FFB3
:1041AC000346FB73214B1B69204A23F00403136164
:1041BC0031E04CF25030FFF739FF0346002B2AD187
:1041CC003B684FF0FF321A607B689B68BB6019E05C
:1041DC00B86800F049F84CF25030FFF727FF03465F
:1041EC00FB73124B1B69114A23F002031361FB7B17
:1041FC00002B03D03B68BA681A600CE0BB6803F56F
:10420C008063BB607B68DB689A027B689B681344A5
:10421C00BA689A42DCD3044B00221A76FB7B184610
:10422C001037BD4680BD00BF80000020002002403A
:10423C0080B483B000AF7860094B0022DA61094B7F
:10424C001B69084A43F004031361064B1B69054ABA
:10425C0043F04003136100BF0C37BD4680BC704770
:10426C00800000200020024080B483B000AF786052
:10427C000B4B0022DA610B4B1B690A4A43F0020319
:10428C001361084A7B685361064B1B69054A43F06E
:10429C004003136100BF0C37BD4680BC704700BFA4
:1042AC00800000200020024080B500AFFEF70AFC21
:1042BC0000F011F800F076F800F0CCF800F056F9A8
:1042CC0000F0B8FA00F0BEF900F03EFA00F0E2FCA3
:1042DC0000F0F0FCFCE780B594B000AF07F12803C8
:1042EC0028220021184602F0F1FC07F114030022E9
:1042FC001A605A609A60DA601A613B1D00221A60DB
:10430C005A609A60DA600523BB624FF48033FB621B
:10431C0000233B6301237B630123BB6302237B6488
:10432C004FF48033BB644FF4E013FB6407F12803B4
:10433C001846FEF74DFC0346002B01D000F02BF87D
:10434C000F237B610223BB610023FB614FF480636D
:10435C003B6200237B6207F1140302211846FEF72F
:10436C00B9FE0346002B01D000F015F803237B6047
:10437C004FF48073BB604FF40043FB603B1D184649
:10438C00FFF736F80346002B01D000F004F800BF0D
:10439C005037BD4680BD80B400AF72B600BF00BFC1
:1043AC00FDE7000080B588B000AF07F110030022D4
:1043BC001A605A609A60DA60244B9B69234A43F076
:1043CC0010039361214B9B6903F01003FB60FB68A6
:1043DC001E4B9B691D4A43F0200393611B4B9B6949
:1043EC0003F02003BB60BB68184B9B69174A43F072
:1043FC0004039361154B9B6903F004037B607B689A
:10440C00124B9B69114A43F0080393610F4B9B6954
:10441C0003F008033B603B6801224FF480510C48C9
:10442C00FFF7A9FB4FF480533B6101237B61002311
:10443C00BB610323FB6107F1100319460448FFF726
:10444C0043F900BF2037BD4680BD00BF00100240BD
:10445C00000C014080B584B000AF3B1D00221A60F7
:10446C005A609A60214B224A1A60204B4FF480729A
:10447C009A601E4B00221A731C4B01221A751B4B9F
:10448C0001229A61194B4FF46022DA61174B00221A
:10449C005A60164B02221A611448FBF769FE034658
:1044AC00002B01D0FFF777FF00237B600123BB605B
:1044BC000723FB603B1D19460C48FBF731FF0346F5
:1044CC00002B01D0FFF767FF01237B600223BB6049
:1044DC003B1D19460548FBF723FF0346002B01D073
:1044EC00FFF759FF00BF1037BD4680BDA00000206C
:1044FC000024014080B588B000AF786007F110034C
:10450C0000221A605A609A60DA607B681B68144A51
:10451C00934221D1134B9B69124A43F4007393616C
:10452C00104B9B6903F40073FB60FB680D4B9B699C
:10453C000C4A43F0040393610A4B9B6903F0040398
:10454C00BB60BB6803233B6103237B6107F1100352
:10455C0019460548FFF7B8F800BF2037BD4680BDA7
:10456C0000240140001002400008014080B500AF5B
:10457C00124B134A1A60114B124A5A600F4B00220D
:10458C009A600E4B0022DA600C4B4FF480421A6199
:10459C000A4B00225A61094B00229A61074B0022F8
:1045AC00DA61064B00221A620448FBF7F3FF03465C
:1045BC00002B01D0FFF7EFFE00BF80BDD000002024
:1045CC0000540040A086010080B588B000AF786030
:1045DC0007F1100300221A605A609A60DA607B6857
:1045EC001B68154A934223D1144B9B69134A43F021
:1045FC0008039361114B9B6903F00803FB60FB6894
:10460C00C0233B6112237B610323FB6107F1100381
:10461C0019460B48FFF758F8084BDB69074A43F477
:10462C000013D361054BDB6903F40013BB60BB685B
:10463C0000BF2037BD4680BD005400400010024032
:10464C00000C014080B500AF174B184A1A60164B8E
:10465C004FF482725A60144B00229A60124B002263
:10466C00DA60114B00221A610F4B00225A610E4B7B
:10467C004FF400729A610C4B1022DA610A4B002243
:10468C001A62094B00225A62074B00229A62064BAF
:10469C000A22DA620448FCF70AFE0346002B01D01A
:1046AC00FFF779FE00BF80BD2401002000380040D8
:1046BC0080B588B000AF786007F1100300221A6053
:1046CC005A609A60DA607B681B681C4A934231D14D
:1046DC001B4BDB691A4A43F48043D361184BDB69EB
:1046EC0003F48043FB60FB68154B9B69144A43F051
:1046FC0008039361124B9B6903F00803BB60BB6812
:10470C004FF420433B6102237B610323FB6107F1E0
:10471C00100319460B48FEF7D7FF4FF480433B615B
:10472C0000237B610023BB6107F110031946054888
:10473C00FEF7CAFF00BF2037BD4680BD00380040E1
:10474C0000100240000C014080B500AF114B124A22
:10475C001A60104B4FF4E1325A600E4B00229A60F3
:10476C000C4B0022DA600B4B00221A61094B0C2215
:10477C005A61084B00229A61064B0022DA61054807
:10478C00FDF72BFB0346002B01D0FFF704FE00BF07
:10479C0080BD00BF7C0100200038014080B588B08E
:1047AC0000AF786007F1100300221A605A609A601B
:1047BC00DA607B681B681C4A934231D11B4B9B69A6
:1047CC001A4A43F480439361184B9B6903F480436A
:1047DC00FB60FB68154B9B69144A43F0040393611F
:1047EC00124B9B6903F00403BB60BB684FF400736E
:1047FC003B6102237B610323FB6107F11003194624
:10480C000B48FEF761FF4FF480633B6100237B6133
:10481C000023BB6107F1100319460548FEF754FF4E
:10482C0000BF2037BD4680BD00380140001002405B
:10483C000008014080B582B000AF3B1D00210A4644
:10484C001A800A469A7000233B601D4B1D4A1A6061
:10485C001B4B4FF0FF325A60194B00229A601848DC
:10486C00FDF776FD0346002B01D0FFF794FD0023E6
:10487C003B7100237B710023BB713B1D0122194648
:10488C000F48FDF7F1FD0346002B01D0FFF783FD28
:10489C0001233B7001237B700123BB700023FB7051
:1048AC003B46012219460648FDF776FE0346002BCF
:1048BC0001D0FFF770FD00BF0837BD4680BD00BFBB
:1048CC00C40100200028004080B584B000AF78609F
:1048DC007B681B680B4A934210D1FFF7BDFA0A4B59
:1048EC00DB69094A43F00063D361074BDB6903F0D2
:1048FC000063FB60FB68054B01221A6000BF103798
:10490C00BD4680BD00280040001002403C044242DD
:10491C0080B400AF00BFFDE780B400AF00BFFDE77F
:10492C0080B400AF00BFFDE780B400AF00BFFDE76F
:10493C0080B400AF00BFFDE780B400AF00BFBD4640
:10494C0080BC704780B400AF00BFBD4680BC7047D0
:10495C0080B400AF00BFBD4680BC704780B500AFCF
:10496C00FEF7F6F800BF80BD80B584B000AF184BE1
:10497C009B69174A43F001039361154B9B6903F044
:10498C000103BB60BB68124BDB69114A43F08053D7
:10499C00D3610F4BDB6903F080537B607B68002293
:1049AC000F216FF00100FFF712FA0A4B5B68FB60F6
:1049BC00FB6823F0E063FB60FB6843F00073FB6073
:1049CC00044AFB68536000BF1037BD4680BD00BF72
:1049DC00001002400000014080B586B000AF786046
:1049EC00144A154BD31A7B617B693B61134B1B68D3
:1049FC00002B02D1114B124A1A60104B1A687B68BB
:104A0C0013443A699A4207D202F088F903460C2201
:104A1C001A604FF0FF3309E0084B1B68FB60074B33
:104A2C001A687B681344054A1360FB6818461837EC
:104A3C00BD4680BD0050002000040000D8010020BD
:104A4C0018200020FBF78EFB0B480C490C4A002366
:104A5C0002E0D458C4500433C4188C42F9D3094A28
:104A6C00094C002301E013600432A242FBD302F094
:104A7C005BF9FFF719FC7047000000205C00002078
:104A8C006C8200085C00002018200020FEE700006B
:104A9C0080B582B000AF78607868FBF75BFB0346AB
:104AAC009AB24FF47A7379680348FDF7E6F900BFC0
:104ABC000837BD4680BD00BF7C01002080B483B0A8
:104ACC0000AF0346FB71FB79022B01D1064B05E0CD
:104ADC00FB79032B01D1054B00E0054B18460C3735
:104AEC00BD4680BC704700BF5C7600086C76000841
:104AFC007476000890B5ADF50B7D02AF07F5087321
:104B0C00A3F5AA73186007F5CE7207F50873A3F521
:104B1C00AA731146186800F0C1FB034687F81F32D0
:104B2C0097F81F32002B14D097F81F32022B01D1AB
:104B3C004F4B00E04F4B504A019200934F4B504A61
:104B4C004FF4C0714F4800F0E7FC4E48FFF7A0FF50
:104B5C008AE007F5CE734133184600F0FFFC03469C
:104B6C00002B11D107F5CE73413307F5CE724649B0
:104B7C000191464900914FF4C071424800F0CCFCC1
:104B8C004048FFF785FF6FE007F5CE7207F5CE734F
:104B9C004133009313463E4A4FF4C071394802F03A
:104BAC004FF83848FFF774FF07F50873A3F5A674A0
:104BBC003A4607F5CE7341331946104601F05CFFB7
:104BCC0007F50873A3F5087320461946C8231A463F
:104BDC0002F0D0F807F50873A3F5A6731B78002B29
:104BEC0006D007F50873A3F5A6731B78012B1CD10F
:104BFC0007F50873A3F5A6731B78002B0CBF0123D4
:104C0C000023DBB2184607F5CE7303F1410107F51B
:104C1C00CE7207F1D4030133019300900B464FF48D
:104C2C00C071184800F054FC1BE007F50873A3F59D
:104C3C00A6731B781846FFF741FF07F50873A3F519
:104C4C00A673D3F8C43007F5CE7202F1410107F513
:104C5C00CE72019300900B464FF4C071094800F0DE
:104C6C005BFC0848FFF714FF07F50977BD4690BDBC
:104C7C008076000894760008BC760008A4760008BC
:104C8C00B4760008E8030020E87600080C770008EA
:104C9C001C77000880B500AF044B00221A60044B4F
:104CAC0000221A6001F0CCFE00BF80BDE0030020A2
:104CBC00E403002080B584B002AFF91D0A23012261
:104CCC003248FDF765F90346002B59D1304B1B6870
:104CDC00002B06D0FB790A2B54D12D4B00221A60E5
:104CEC0050E0FB79002B14D12A4B00221A60284B80
:104CFC0001221A60284B0193284B0093284B294A18
:104D0C004FF4C071284800F007FC2748FFF7C0FE9D
:104D1C0039E0FB790A2B0FD11E4B1B68234A00216B
:104D2C00D1541C4B1B68002B02D02048FFF7E2FE2D
:104D3C00184B00221A6026E0164B1B680133B3F5A2
:104D4C00007F08D8134B1B685A1C12490A60F9796A
:104D5C00164AD15417E00F4B00221A600C4B01225B
:104D6C001A60134B01930D4B00930D4B0D4A4FF4EE
:104D7C00C0710D4800F0D0FB0B48FFF789FE02E034
:104D8C0000BF00E000BF0837BD4680BD7C0100209D
:104D9C00E4030020E00300207477000894760008F8
:104DAC00A4760008B4760008E8030020DC0100209B
:104DBC009877000880B483B000AF786004E07B681B
:104DCC001B685A1C7B681A607B681B681B78202B3D
:104DDC00F5D07B681B681B78092BF0D07B681B68AF
:104DEC001B780D2BEBD07B681B681B780A2BE6D04D
:104DFC0000BF00BF0C37BD4680BC704780B582B089
:104E0C0000AF78600B46FB707868FFF7D3FF7B68C8
:104E1C001B681B78FA789A4201D0002305E07B6866
:104E2C001B685A1C7B681A60012318460837BD465C
:104E3C0080BD000080B483B000AF0346FB71FB79EA
:104E4C0001330D4A13441B7803F00403002B0BD1E0
:104E5C00FB79602B02D9FB79662B05D9FB79402BAA
:104E6C0004D9FB79462B01D8012300E00023184616
:104E7C000C37BD4680BC70472881000880B588B0CF
:104E8C0000AFF860B9607A603B600023FB61F868A2
:104E9C00FFF790FFFB681B68591CFA6811601B78C0
:104EAC00222B6AD0002388E0FB681B68591CFA6827
:104EBC0011601B78FB75FB7D1F2B01D800237CE058
:104ECC00FB7D5C2B30D13B68002B01D0002374E0C0
:104EDC00FB681B68591CFA6811601B78BB75BB7D9D
:104EEC00752B17D10023BB6110E0FB681B68591CA4
:104EFC00FA6811601B781846FFF79CFF0346002BDD
:104F0C0001D1002359E0BB690133BB61BB69032BA1
:104F1C00EBD920E0BB7D19462A4801F0DFFE0346A1
:104F2C00002B18D1002348E03B68002B13D0FB7DED
:104F3C000133254A13441B7803F00703002B0AD1D5
:104F4C00FB7D2E2B07D0FB7D5F2B04D0FB7D2D2B07
:104F5C0001D0002331E0FB690133FB61FA697B6806
:104F6C009A4201D3002328E0BB68002B05D0FB69D3
:104F7C00013BBA681344FA7D1A70FB681B681B78F6
:104F8C00002B04D0FB681B681B78222B8CD1FB6890
:104F9C001B68591CFA6811601B78222B02D1FB6923
:104FAC00002B01D1002308E0BB68002B04D0BA68A9
:104FBC00FB69134400221A70012318462037BD46A2
:104FCC0080BD00BFB87700082881000880B584B088
:104FDC0000AF786039603868FBF7BCF8F860786827
:104FEC00FFF7E8FE7B681B68FA683968184601F021
:104FFC0082FE0346002B01D0002306E07B681A6872
:10500C00FB681A447B681A60012318461037BD46AA
:10501C0080BD000080B584B000AF786039607868DE
:10502C00FFF7C8FE7B681B68FB607B681B681B78FE
:10503C002D2B04D17B681B685A1C7B681A607B681B
:10504C001B681B78302B11D17B681B685A1C7B6842
:10505C001A607B681B681B7801334F4A13441B781A
:10506C0003F00403002B1ED0002391E07B681B6827
:10507C001B780133484A13441B7803F00403002BBC
:10508C0006D1002384E07B681B685A1C7B681A607D
:10509C007B681B681B7801333F4A13441B7803F071
:1050AC000403002BEFD17B681B681B782E2B21D1BE
:1050BC007B681B685A1C7B681A607B681B681B78B2
:1050CC000133354A13441B7803F00403002B06D13B
:1050DC0000235DE07B681B685A1C7B681A607B6848
:1050EC001B681B7801332C4A13441B7803F0040310
:1050FC00002BEFD17B681B681B78652B04D07B6879
:10510C001B681B78452B30D17B681B685A1C7B684D
:10511C001A607B681B681B782B2B04D07B681B6880
:10512C001B782D2B04D17B681B685A1C7B681A607A
:10513C007B681B681B780133174A13441B7803F0F8
:10514C000403002B06D1002322E07B681B685A1C49
:10515C007B681A607B681B681B7801330E4A13440A
:10516C001B7803F00403002BEFD13B68002B0ED00F
:10517C007B681A68FB68D31A012B05D1FB681B7876
:10518C00312B01D1012200E000223B681A6001237F
:10519C0018461037BD4680BD2881000880B584B004
:1051AC0000AF78600023FB607B217868FFF726FE58
:1051BC000346002B01D1002367E07868FFF7FAFD66
:1051CC007B681B681B787D2B06D17B681B685A1C7F
:1051DC007B681A60012358E0FB680133FB60FB68B5
:1051EC00102B0FD80023412200217868FFF746FED0
:1051FC000346002B06D03A217868FFF7FFFD0346E3
:10520C00002B01D1002340E07868FFF7D3FD7B68C9
:10521C001B681B78222B0AD10023A122002178685D
:10522C00FFF72CFE0346002B18D100232DE0194963
:10523C007868FFF7CBFE0346002B0FD11649786830
:10524C00FFF7C4FE0346002B08D100217868FFF756
:10525C00E1FE0346002B01D1002316E07868FFF72E
:10526C00A9FD7B681B681B787D2B06D17B681B68AE
:10527C005A1C7B681A60012307E02C217868FFF721
:10528C00BDFD0346002BA7D1002318461037BD46A1
:10529C0080BD00BFC4770008CC77000880B58CB007
:1052AC0000AF786039600023FB627B68002B02D072
:1052BC003B68002B01D10123FAE07868FAF74AFF2A
:1052CC0078627B6A012B03D97B6AB3F5007F01D925
:1052DC000123EDE07B683B6207F120037B2118463C
:1052EC00FFF78CFD0346002B01D10123E0E00023E6
:1052FC00FB6007F1180107F1200001230822FFF7DA
:10530C00BDFD0346002B08D007F120033A211846B7
:10531C00FFF774FD0346002B01D10123C8E007F110
:10532C00180365491846FAF70BFF0346002B02D108
:10533C000123BB6231E007F1180360491846FAF704
:10534C00FFFE0346002B02D10223BB6225E007F1CE
:10535C0018035B491846FAF7F3FE0346002B02D1FB
:10536C000423BB6219E007F1180356491846FAF7F3
:10537C00E7FE0346002B02D10823BB620DE007F1C8
:10538C00180351491846FAF7DBFE0346002B02D1ED
:10539C001023BB6201E001238AE0FA6ABB6A134066
:1053AC00002B01D0012383E0FA6ABB6A1343FB6232
:1053BC00BB6A012B11D107F10C0207F12003114636
:1053CC001846FFF727FE0346002B01D101236FE09F
:1053DC00FB68002B44D102236AE0BB6A022B0BD181
:1053EC00396807F1200001234122FFF747FD0346EE
:1053FC00002B35D101235BE0BB6A042B15D107F1DF
:10540C00100107F1200001230522FFF737FD0346A9
:10541C00002B08D007F110032C491846FAF790FE20
:10542C000346002B1CD0012342E0BB6A082B0DD194
:10543C003B6803F1410107F1200001234122FFF7F2
:10544C001DFD0346002B0BD1012331E007F1200396
:10545C001846FFF7A3FE0346002B01D1012327E0DA
:10546C0007F120031846FFF7A5FC3B6A1B787D2B40
:10547C000CD13B6A01333B6207F120031846FFF75E
:10548C0099FC3B6A1B78002B0FD10BE007F1200332
:10549C002C211846FFF7B2FC0346002B7FF427AFF4
:1054AC00012305E0FB6A1F2B01D0012300E0002340
:1054BC0018463037BD4680BDD4770008D877000831
:1054CC00DC770008E4770008EC770008F477000834
:1054DC0080B588B004AFF860B9607A603B60BB6996
:1054EC00002B01D0094B00E0094BFA6902920193A1
:1054FC003B6800937B68074AB968F86801F0A0FB29
:10550C00034618461037BD4680BD00BFF87700082B
:10551C00007800080878000880B588B004AFF860FF
:10552C00B9607A603B60FB690293BB6901933B688D
:10553C0000937B68044AB968F86801F081FB034664
:10554C0018461037BD4680BD5478000880B400AFB3
:10555C000F231846BD4680BC7047000080B584B050
:10556C0000AF78607B68002B01D1002319E0002389
:10557C00FB600FE00D4AFB6852F82330194678683F
:10558C00FAF7DEFD0346002B01D1012309E0FB688D
:10559C000133FB60FFF7DAFF0246FB689342E9D365
:1055AC00002318461037BD4680BD00BFBC800008E4
:1055BC0080B5B6B000AFF8600B467A60FB72FB7A30
:1055CC003B740E4A07F111031188927819809A7076
:1055DC0007F11403BD220021184601F077FB7B680C
:1055EC00C7F8D430FB68184607F11003C8221946D7
:1055FC0001F0C0FBF868D837BD4680BD947900082F
:10560C0080B5B4B000AF786007F108030C4A0021F4
:10561C001846FFF7CDFF07F10803581C094B0A4A3F
:10562C00C02101F00DFB7B68184607F10803C82266
:10563C00194601F09FFB7868D037BD4680BD00BF8E
:10564C00987900089C790008A879000890B5B9B041
:10565C0002AF7860154BC7F8D43007F10C03144A2D
:10566C0000211846FFF7A4FFD7F8D4301C68D7F8F0
:10567C00D43004331B68D7F8D4200832126807F1F1
:10568C000C01481C0192009323460A4AC02101F0E8
:10569C00D7FA7B68184607F10C03C822194601F0AB
:1056AC0069FB7868DC37BD4690BD00BFE8F7FF1F8B
:1056BC0098790008E079000880B5EEB002AFC7F821
:1056CC00CC0007F5CE7300221A605A609A60DA603B
:1056DC00424B9B69414A43F0080393613F4B9B69E2
:1056EC0003F00803C7F8D030D7F8D0300123C7F83F
:1056FC009C310123C7F8A0310223C7F8A83107F564
:10570C00CE7319463648FDF7DFFF0223C7F89C31EC
:10571C000023C7F8A0310223C7F8A43107F5CE73D4
:10572C0019462F48FDF7D0FF002201212C48FEF727
:10573C0022FA0220FDF728FA02212948FEF704FA82
:10574C00034687F8AF31012201212548FEF713FAF1
:10575C000220FDF719FA02212148FEF7F5F903465C
:10576C0087F8AE3103211E48FEF732F997F8AF31B6
:10577C00002B05D197F8AE31012B01D1002100E0AF
:10578C0002213B46174A1846FFF712FF07F5D8735C
:10579C00A3F5D87207F1D4031146C822184601F0BC
:1057AC00E9FA97F8AF1197F8AE3107F1D402501C13
:1057BC0000930B460C4AC02101F042FAD7F8CC30CA
:1057CC00184607F1D403C822194601F0D3FAD7F8CA
:1057DC00CC0007F5D877BD4680BD00BF0010024055
:1057EC00000C0140107A0008247A000880B5EEB055
:1057FC0000AFC7F8CC0007F5D07300221A605A60CE
:10580C009A60DA603B4B9B693A4A43F00803936118
:10581C00384B9B6903F00803C7F8D430D7F8D43061
:10582C000223C7F8A031344BC7F8A4310123C7F8C1
:10583C00A83107F5D07319463048FDF745FF304BBA
:10584C0000221A602F4B02225A61002202210720EB
:10585C00FEF7BDFA0720FEF7D6FAFDF78BF9C7F86D
:10586C00B40102E00220FDF78FF9FDF783F902463F
:10587C00D7F8B431D31A42F20F729342F2D90720FF
:10588C00FEF7CFFA1E4B1B68C7F8B03102211B483C
:10589C00FEF79EF8D7F8B031002B01D0002100E0C4
:1058AC0002213B46184A1846FFF782FE07F5DC73C7
:1058BC00A3F5DC7207F1D8031146C822184601F093
:1058CC0059FA07F1D803581CD7F8B0310F4AC02148
:1058DC0001F0B6F9D7F8CC30184607F1D803C82236
:1058EC00194601F047FAD7F8CC0007F5DC77BD462E
:1058FC0080BD00BF0010024000002110000C0140D0
:10590C006C05002000040140547A00087C7A0008E1
:10591C0080B500AF0220FEF747F900BF80BD000044
:10592C0080B483B000AF0346FB80FB88022B04D10C
:10593C00044B1B680133034A136000BF0C37BD4690
:10594C0080BC70476C05002080B586B000AFF86055
:10595C00B9607A60FDF70EF9786109E0FDF70AF994
:10596C0002467B69D31A7A689A4201D800230AE06E
:10597C00FB681A69BB681340002BEFD0BB68DA4395
:10598C00FB681A61012318461837BD4680BD00001C
:10599C0080B5F2B002AFC7F8CC0007F5D473002283
:1059AC001A605A609A60DA600023C7F8BC31002391
:1059BC00C7F8B831824B9B69814A43F00403936169
:1059CC007F4B9B6903F00403C7F8DC30D7F8DC305D
:1059DC007B4BDB697A4A43F00103D361784BDB697B
:1059EC0003F00103C7F8D830D7F8D830744BDB6913
:1059FC00734A43F00203D361714BDB6903F002037A
:105A0C00C7F8D430D7F8D4300123C7F8A831022313
:105A1C00C7F8AC310323C7F8B43107F5D473194672
:105A2C006848FDF751FE4023C7F8A8310023C7F89A
:105A3C00AC310023C7F8B03107F5D473194661486F
:105A4C00FDF742FE4FF0804347229A624FF08043AD
:105A5C0040F2E732DA624FF080434FF4FA725A6345
:105A6C004FF0804368229A614FF0804301221A6202
:105A7C004FF0804301225A614FF0804381221A601B
:105A8C00514B47229A62504B4FF6FF72DA624E4BE3
:105A9C0040F201229A614C4B31221A624A4B542239
:105AAC009A60494B01225A61474B00221A61464BBE
:105ABC0001221A60642202214348FFF745FF034686
:105ACC00002B07D0642202213F48FFF73DFF03461D
